:020000040800F2
:100000004811002011AE0008E5A60008E7A6000888
:10001000E9A60008EBA60008EDA600080000000015
:10002000000000000000000000000000EFA6000833
:10003000F1A6000800000000F3A60008F5A60008DD
:10004000E5B10008E9B10008EDB10008F1B1000820
:10005000F5B10008F9B100083BA800084FA8000856
:10006000FDB1000863A800087BA8000801B20008E1
:10007000FDA6000811A7000829A7000853A700083B
:100080006BA7000883A7000805B200089BA700081B
:100090009DA70008D5A70008D7A7000893A80008C7
:1000A00009B200080DB2000811B2000815B200082C
:1000B00019B200081DB2000821B2000825B20008DC
:1000C00029B200082DB2000831B20008F1A70008DB
:1000D00035B20008F3A700080BA8000823A8000801
:1000E000ABA8000839B20008A5A700083DB2000877
:1000F00041B2000845B2000849B200084DB20008FC
:10010000000000000000000051B2000855B20008D5
:1001100059B200085DB2000861B2000865B200087B
:1001200069B200086DB20008C7A8000871B20008E3
:1001300075B2000879B200087DB2000881B20008EB
:1001400000000000000000000000000000000000AF
:10015000D9A70008DBA70008E5A70008EFA700085B
:10016000B1A7000885B2000889B200088DB2000866
:1001700091B2000895B200080000000010F00702DC
:10018000DFF83C3D1B6819004FF6FF031940DFF80C
:10019000343D53EA02231943DFF8243D19607047C8
:1001A000DFF81C0D0068C0F302207047012110F039
:1001B0001F029140DFF8102D40B2430942F823108E
:1001C000704710B440B2002809D50A01DFF8FC3CA2
:1001D00040B210F00F04234403F8042C04E00A0199
:1001E000DFF8EC3C40B21A5410BC704770B4030006
:1001F00013F00704D4F10706052E01D3042001E013
:10020000D4F10700261D072E01D2002500E0E51ECF
:10021000012616FA00F0401E0840A8400121A9401E
:10022000491E1140084370BC7047F8B504000D002A
:1002300016001F00684601F048F8ADF800708DF810
:1002400003508DF802606946200000F0A3FFF1BD65
:1002500080B50121012001F058FC0121042001F0AA
:1002600054FC0121082001F050FC0121102001F074
:100270004CFC01215FF0007001F02FF80121DFF844
:10028000580E89B241610221DFF84C0E89B24161FA
:100290000121DFF8400C89B241610221DFF8340C02
:1002A00089B241610821DFF82C0C89B2016110216B
:1002B000DFF8200C89B201618021DFF8180C89B2C7
:1002C00001611021DFF8100E89B241614FF48051B5
:1002D000DFF8000C89B241614FF40041DFF8F80B00
:1002E00089B241614FF40051DFF8EC0B89B24161F2
:1002F0004FF48041DFF8E00B89B241614FF40041D7
:10030000DFF8D40D89B20161012302221021DFF848
:10031000C80DFFF78AFF022302221021DFF8B80D73
:10032000FFF783FF012302221021DFF8A80BFFF75C
:100330007CFF022302221021DFF8980BFFF775FFE4
:10034000082302221021DFF88C0BFFF76EFF102329
:1003500002221021DFF87C0BFFF767FF80230222C7
:100360001021DFF8700BFFF760FF1023022210212D
:10037000DFF8640DFFF759FF4FF48053022210217C
:10038000DFF8500BFFF751FF4FF40043022210211A
:10039000DFF8440BFFF749FF4FF40053022210210E
:1003A000DFF8340BFFF741FF4FF4804302220421B2
:1003B000DFF8240BFFF739FF4FF40043022210212E
:1003C000DFF8140DFFF731FF01BD80B501210420D6
:1003D00001F09BFB684600F078FF4FF4C050ADF889
:1003E000000010208DF8030002208DF802006946FD
:1003F000DFF8480D00F0CEFE4FF48051DFF83C0DE1
:1004000089B2416101BD80B500F08DFEA121DFF808
:10041000300D4163C0464FF4167001F050FC0021CE
:10042000DFF81C0D4163C0464FF4167001F047FC25
:10043000A121DFF80C0D4163C0464FF4167001F0A6
:100440003EFC0021DFF8F80C4163C0464FF4167003
:1004500001F035FCA121DFF8E80C4163C0464FF400
:10046000167001F02CFC0021DFF8D40C4163C0466B
:100470004FF4167001F023FCC046C04601BD80B5A4
:100480000320FFF77BFEFFF78BFE00220021FFF722
:10049000ADFE01002520FFF794FE2520FFF786FE24
:1004A000FFF77EFE00220021FFF7A0FE01002620BC
:1004B000FFF787FE2620FFF779FEFFF771FE002287
:1004C0000021FFF793FE01002720FFF77AFE272087
:1004D000FFF76CFEFFF764FE00220021FFF786FEA7
:1004E00001002320FFF76DFE2320FFF75FFEFFF7DB
:1004F00057FE00220021FFF779FE01002420FFF7BC
:1005000060FE2420FFF752FEFFF74AFE0022002182
:10051000FFF76CFE01001320FFF753FE1320FFF7D7
:1005200045FEFFF73DFE00220021FFF75FFE0100C0
:100530001420FFF746FE1420FFF738FEFFF730FEC9
:1005400000220021FFF752FE01004420FFF739FE90
:100550004420FFF72BFEFFF723FE00220021FFF7C8
:1005600045FE01004520FFF72CFE4520FFF71EFE4B
:10057000FFF716FE00220021FFF738FE010046209B
:10058000FFF71FFE4620FFF711FEFFF709FE0022CE
:100590000021FFF72BFE01000920FFF712FE0920C2
:1005A000FFF704FEFFF7FCFD00220021FFF71EFE0F
:1005B00001000A20FFF705FE0A20FFF7F7FDFFF70D
:1005C000EFFD00220021FFF711FE01001720FFF7C9
:1005D000F8FD1720FFF7EAFDFFF7E2FD00220021FA
:1005E000FFF704FE01002820FFF7EBFD2820FFF7AE
:1005F000DDFD01BDF0B583B004000D0016001F0045
:10060000684601F0C5FB00948DF804508DF8056034
:100610008DF80670684601F077FBF7BD80B50321C1
:10062000012001F044F901230C2200210820FFF7EA
:10063000E1FF082001F0B5FB0421012001F037F9AA
:1006400001230C2200211020FFF7D4FF102001F01D
:10065000A8FB0721012001F02AF901230C22002127
:100660008020FFF7C7FF802001F09BFB0E210220B6
:1006700001F01DF901230C2200214FF48040FFF707
:10068000B9FF4FF4804001F08CFB01BD80B5012122
:10069000012001F02BFAFFF783FD00220021FFF774
:1006A000A5FD01000C20FFF78CFD0C20FFF77EFD5F
:1006B000FFF776FD00220021FFF798FD01000D20D5
:1006C000FFF77FFD0D20FFF771FDFFF769FD0022A9
:1006D0000021FFF78BFD01000E20FFF772FD0E20B9
:1006E000FFF764FDFFF75CFD00220021FFF77EFDB0
:1006F00001000F20FFF765FD0F20FFF757FDFFF703
:100700004FFD00220021FFF771FD01001020FFF7CF
:1007100058FD1020FFF74AFDFFF742FD002200219F
:10072000FFF764FD01001120FFF74BFD1120FFF7DB
:100730003DFD0121022001F0D9F9FFF731FD002232
:100740000021FFF753FD01003A20FFF73AFD3A2060
:10075000FFF72CFD01BD1FB504000121042001F0AD
:10076000D4F901214FF4804001F0CFF94FF4007328
:1007700002221821DFF86009FFF757FD4FF480636C
:1007800002220421DFF85009FFF74FFDDFF8B4091A
:1007900001F02CFB684601F029FC00940020ADF824
:1007A00008000020ADF804000020ADF806000C2081
:1007B000ADF80A000020ADF80C006946DFF88409A6
:1007C00001F086FB0121DFF87C0901F01DFC01220C
:1007D00040F22551DFF86C0901F024FC1FBD1FB564
:1007E00004000121042001F090F901215FF40030A0
:1007F00001F09AF9042302221821DFF8DC08FFF740
:1008000014FD082302220421DFF8CC08FFF70DFDB8
:10081000DFF8340901F0EAFA684601F0E7FB0094DA
:100820000020ADF808000020ADF804000020ADF86D
:1008300006000C20ADF80A000020ADF80C00694657
:10084000DFF8040901F044FB0121DFF8FC0801F0A6
:10085000DBFB012240F22551DFF8EC0801F0E2FB5E
:100860001FBD1FB504000121082001F04EF9012130
:100870005FF4802001F058F94FF4806302221821C0
:10088000DFF85006FFF7D1FC4FF400630222042189
:10089000DFF84006FFF7C9FCDFF8B00801F0A6FA60
:1008A000684601F0A3FB00940020ADF8080000208A
:1008B000ADF804000020ADF806000C20ADF80A00E9
:1008C0000020ADF80C006946DFF8800801F000FB5D
:1008D0000121DFF8780801F097FB012240F2255151
:1008E000DFF8680801F09EFB1FBD4FF40040DFF801
:1008F0006018086070474FF40040DFF8581808602F
:10090000704700B589B00121042001F0FEF80121F3
:100910004FF4006001F0F9F84FF4807302221821BF
:10092000DFF8B407FFF781FCDFF8140801F0FCFBE7
:10093000EF20ADF8140040F2411007900020ADF810
:10094000200000208DF8220005A9DFF8F40701F04F
:1009500085FC0021DFF8E80701F0C6FD6020ADF856
:1009600000000120ADF802000020ADF804000020D6
:1009700002900020ADF80C000020ADF80E00002021
:10098000ADF810000020ADF812006946DFF8B0079E
:1009900001F09AFC0121DFF8A80701F089FD082188
:1009A000DFF89C0701F0B7FD0121DFF8940701F0A3
:1009B000A4FD0121DFF8880701F06CFD09B000BD3E
:1009C00000B595B00121082001F09FF80121012018
:1009D00001F0AAF8012302221821DFF8FC06FFF734
:1009E00024FC022302221821DFF8EC06FFF71DFC8D
:1009F0005FF0804001F098FB0120ADF840009520A9
:100A000012900020ADF84C0000208DF84E0010A987
:100A10005FF0804001F022FC00215FF0804001F097
:100A200063FD6020ADF82C000120ADF82E00002001
:100A3000ADF830004B200D900020ADF838000020BC
:100A4000ADF83A000020ADF83C000020ADF83E00C3
:100A50000BA95FF0804001F037FC0BA95FF08040EC
:100A600001F06BFC01215FF0804001F021FD0821C5
:100A70005FF0804001F04FFD08215FF0804001F001
:100A800053FD01215FF0804001F037FD01215FF04F
:100A9000804001F0FFFC01224FF400715FF08040C4
:100AA00001F017FD01224FF480615FF0804001F0FA
:100AB00010FD1020029000200190802005904FF43E
:100AC0008060079000200390DFF88C0600900020E3
:100AD00004904FF4807006904FF44050099000202D
:100AE000089000200A906946DFF8700601F04EFD7C
:100AF00001220221DFF8640601F075FD0021DFF814
:100B00005C0601F062FD1020029000200190802020
:100B100005904FF48060079000200390DFF84006B6
:100B20000090002004904FF4807006904FF44050E5
:100B300009900020089000200A906946DFF82406FA
:100B400001F024FD01220221DFF8180601F04BFD1F
:100B50000021DFF8100601F038FD15B000BD00B52A
:100B600095B00121082000F0D0FF0121022000F003
:100B7000DBFF012302221821D648FFF756FB022390
:100B800002221821D348FFF750FBDFF8DC0501F003
:100B9000CBFA0120ADF84000952012900020ADF86E
:100BA0004C0000208DF84E0010A9DFF8BC0501F0C4
:100BB00055FB0021DFF8B00501F096FC6020ADF890
:100BC0002C000120ADF82E000020ADF830004B20A5
:100BD0000D900020ADF838000020ADF83A0000205C
:100BE000ADF83C000020ADF83E000BA9DFF8780519
:100BF00001F0E3FB0BA9DFF8700501F01DFC0821F3
:100C0000DFF8640501F09AFC0821DFF85C0501F0CB
:100C10009EFC0121DFF8500501F06FFC0121DFF897
:100C2000480501F037FC01224FF40061DFF8380578
:100C300001F04FFC01224FF48051DFF82C0501F048
:100C400048FC1020029000200190802005904FF475
:100C50008060079000200390DFF8100500900020CE
:100C600004904FF4807006904FF44050099000209B
:100C7000089000200A906946DFF8F40401F086FC31
:100C800001220221DFF8E80401F0ADFC0021DFF8C9
:100C9000E00401F09AFC10200290002001908020D6
:100CA00005904FF48060079000200390DFF8C404A3
:100CB0000090002004904FF4807006904FF4405054
:100CC00009900020089000200A906946DFF8A804E7
:100CD00001F05CFC01220221DFF89C0401F083FC9E
:100CE0000021DFF8940401F070FC15B000BD10B5D0
:100CF00086B004000121042000F007FF01214FF419
:100D0000805000F002FF102302221021DFF8C803F8
:100D1000FFF78BFA202302221821DFF8BC03FFF72C
:100D200084FA802302221821DFF8AC03FFF77DFA52
:100D3000402302220421DFF8A003FFF776FADFF850
:100D40003C0401F081FC684601F0EEFC0020ADF8A7
:100D500000004FF48270ADF802000020ADF80400EE
:100D60000220ADF806000120ADF808004FF4007035
:100D7000ADF80A001820ADF80C000020ADF80E0008
:100D80006946DFF8F80301F099FC0121DFF8EC0374
:100D900001F0DDFC06B010BD10B586B004000121E5
:100DA000082000F0B2FE01214FF4804000F0BCFEAC
:100DB0004FF48053022210214648FFF736FA4FF4D1
:100DC0000053022218214348FFF72FFA4FF4004343
:100DD000022218213F48FFF728FA4FF480430222ED
:100DE00004213C48FFF721FADFF8940301F02CFCC2
:100DF000684601F099FC0020ADF800004FF48270C5
:100E0000ADF802000020ADF804000220ADF80600A5
:100E10000120ADF808004FF40070ADF80A0008207A
:100E2000ADF80C000020ADF80E006946D44801F082
:100E300045FC0121D24801F08AFC06B010BD1FB567
:100E400004000121082000F060FE01215FF4001081
:100E500000F06AFE4FF4807302221C211D48FFF748
:100E6000E4F94FF4007302221C211A48FFF7DDF960
:100E70000121C44800F031FAC34801F083FC684600
:100E800001F030FD00940020ADF804004BF6FF7037
:100E9000ADF806004520ADF808004FF48040ADF8ED
:100EA0000C004FF48060ADF80A006946B64801F0C6
:100EB00095FC0121B44801F025FD1FBD0000000094
:100EC0000CED00E00000FA0500E100E018ED00E0A4
:100ED00000E400E0000C01400010014010B584B0B7
:100EE000040001215FF0806000F01EFE202302223A
:100EF0004821A648FFF799F9402302221821A34868
:100F0000FFF793F901215FF4800000F0E6F96846ED
:100F100001F085FE9E4801F06BFD022000F0CFFE3F
:100F200000208DF8060000208DF8070000208DF8C5
:100F3000080000208DF8090000208DF80A0000202C
:100F40008DF80B0000208DF80200E4B2002C13D0C5
:100F5000022C2DD01ED3042C45D037D3062C5CD0C8
:100F60004ED3082C73D065D30A2C00F08A807BD333
:100F70000B2C00F093809EE04FF41660ADF800005B
:100F800001208DF8030004208DF8040003208DF863
:100F900005009CE04FF49660ADF8000001208DF84C
:100FA000030004208DF8040003208DF805008EE076
:100FB0004FF41670ADF8000001208DF803000420F6
:100FC0008DF8040003208DF8050080E0F020ADF8D6
:100FD000000001208DF8030004208DF80400032098
:100FE0008DF8050073E07820ADF8000001208DF841
:100FF000030004208DF8040003208DF8050066E04E
:101000006020ADF8000001208DF8030004208DF869
:10101000040003208DF8050059E03020ADF80000F1
:1010200001208DF8030004208DF8040003208DF8C2
:1010300005004CE01820ADF8000001208DF80300F9
:1010400004208DF8040003208DF805003FE01420F3
:10105000ADF8000001208DF8030004208DF8040095
:1010600003208DF8050032E01020ADF800000120CB
:101070008DF8030004208DF8040003208DF805008E
:1010800025E00C20ADF8000001208DF803000720BA
:101090008DF8040002208DF8050018E00C20ADF852
:1010A000000001208DF8030004208DF804000320C7
:1010B0008DF805000BE00C20ADF8000001208DF844
:1010C000030004208DF8040003208DF80500694614
:1010D0002F4801F09EFC1FBD0008014010B5040020
:1010E000012202212A4801F02CFF01220421284874
:1010F00001F027FF01220821254801F022FF0122EB
:101100001021234801F01DFF01222021204801F079
:1011100018FF012240211E4801F013FF0121200089
:1011200001F0B1FE10BD80B57F2001F0F7FF002176
:101130004FF4006000F0F8FC01BD00000008014021
:10114000002C0140003801400044004000480040AD
:1011500010100140141001403400004058000240BB
:101160003800004080000240000400403C04004081
:101170001C000240400400403000024000300140AA
:10118000003800401101008000540040000C014074
:1011900000680040F0B5002700220023002400254D
:1011A000002691F803C01CF00F0C674691F803C0AD
:1011B0005FEACC6C03D591F802C05CEA070791F8AE
:1011C00000C05FEA0C6C3AD0D0F800C065465FF012
:1011D000000C6346082B31D25FF0010C1CFA03FCB3
:1011E0006446B1F800C014EA0C0C6246A24223D156
:1011F0005FEA830C64465FF00F0C1CFA04FC664641
:10120000B54317FA04FC5CEA050591F803C0BCF18C
:10121000280F06D15FF0010C1CFA03FCC0F814C0C3
:101220000AE091F803C0BCF1480F05D15FF0010C52
:101230001CFA03FCC0F810C05B1CCBE70560B1F8DA
:1012400000C0BCF1FF0F3FDDD0F804C065465FF081
:10125000000C6346082B36D25FF0010C13F1080E28
:101260001CFA0EFC6446B1F800C014EA0C0C62468D
:10127000A24226D15FEA830C64465FF00F0C1CFA91
:1012800004FC6646B54317FA04FC5CEA050591F8D0
:1012900003C0BCF1280F07D15FF0010C13F1080E59
:1012A0001CFA0EFCC0F814C091F803C0BCF1480F42
:1012B00007D15FF0010C13F1080E1CFA0EFCC0F808
:1012C00010C05B1CC6E74560F0BD4FF6FF710180A2
:1012D000022181700421C1707047F0B4B0F1004F59
:1012E00040F289800023002420F000473E00F709E7
:1012F0003B0016F07F0637093C0016F00F0627006A
:10130000FFB2BF0016FA07F73A00002B08D0022BF5
:101310000ED009D3042B13D00ED3052B14D017E015
:10132000DFF8DC753D0013E0DFF8D8753D000FE015
:10133000DFF8D4753D000BE0DFF8D0753D0007E025
:10134000DFF8CC753D0003E0DFF8C8753D00FFE72E
:10135000002C04D12F683F093F012F6043E0012C8E
:1013600018D1012B0FD1052E06D32F687FF0C00CAA
:101370001CEA07072F6036E02F687FF0300C1CEA6C
:1013800007072F602FE02F687FF0F00C1CEA07079B
:101390002F6028E0022C04D12F6837F470672F608B
:1013A00021E0032C04D12F6837F470472F601AE036
:1013B000042C04D12F6837F470272F6013E0052C1C
:1013C00004D12F6837F470072F600CE0062C04D18D
:1013D0002F6837F070672F6005E0072C03D12F6866
:1013E00027F070472F60C9B2012940F05E822F6854
:1013F0003A432A6059E20200012A00F0A580022A3D
:1014000000F09080042A00F08D80082A00F08A8085
:10141000102A00F0AE80302A00F0C080402A00F090
:10142000D280C02A00F0E480B2F5807F00F0F58021
:10143000B2F5007F00F00581B2F5407F00F0138126
:10144000B2F5006F00F01F81B2F5406F00F02B8104
:10145000B2F5805F66D0B2F5804F00F03481B2F50E
:10146000C04F00F04081B2F5004F5BD0B2F5803F35
:1014700058D0B2F5003F55D0B2F5802F52D0B2F51A
:10148000002F4FD0B2F5801F4CD0B2F5001F00F0F6
:10149000BA81B2F5800F00F0A681B2F5000F00F01E
:1014A0009281B2F1807F00F02E81B2F1007F00F0D6
:1014B0003A81B2F1806F00F04681B2F1805F00F0B6
:1014C0007281B2F1005F00F05E81B2F1804F00F0F6
:1014D0004A81DFF844349A4200F0A581DFF83C34B9
:1014E0009A4200F0A081DFF838349A4200F09B81E4
:1014F000DFF830349A4200F09681DFF82C349A42BB
:1015000000F0A381DFF824349A4200F0AE81DFF8C6
:1015100020349A4200F0B981DFF818349A4200F082
:101520008281C2E1DFF8102412688243DFF80834B8
:101530001A60C9B2012906D1DFF8FC231268024300
:10154000DFF8F4331A60B0E1DFF8EC231268DFF85B
:10155000EC331A40DFF8E0331A60C9B2012907D131
:10156000DFF8D423126852F00102DFF8CC331A609E
:101570009BE1DFF8C42312687FF030031A40DFF8E4
:10158000B8331A60C9B2012907D1DFF8AC23126859
:1015900052F01002DFF8A0331A6086E1DFF89823DA
:1015A00012687FF030031A40DFF88C331A60C9B23A
:1015B000012907D1DFF88023126852F03002DFF8EA
:1015C00078331A6071E1DFF8702312687FF0C0038E
:1015D0001A40DFF864331A60C9B2012907D1DFF875
:1015E0005823126852F04002DFF84C331A605CE175
:1015F000DFF8442312687FF0C0031A40DFF8383365
:101600001A60C9B2012907D1DFF82C23126852F001
:10161000C002DFF824331A6047E1DFF81C231268A8
:1016200032F44072DFF810331A60C9B2012907D1D1
:10163000DFF80423126852F48072DFF8FC321A607B
:1016400033E1DFF8F422126832F44072DFF8E83256
:101650001A60C9B2012905D1B74A126852F4007262
:10166000B54B1A6021E1B44A126832F44072B24BB1
:101670001A60C9B2012905D1AF4A126852F440720A
:10168000AD4B1A6011E1AC4A126832F44062AA4BC9
:101690001A60C9B2012905D1A74A126852F4006242
:1016A000A54B1A6001E1A44A126832F44062A24BD1
:1016B0001A60C9B2012905D19F4A126852F44062EA
:1016C0009D4B1A60F1E09C4A126832F4C0429A4B7A
:1016D0001A60C9B2012905D1974A126852F48042B2
:1016E000954B1A60E1E0944A126832F4C042924B82
:1016F0001A60C9B2012905D18F4A126852F4C0425A
:101700008D4B1A60D1E08C4A126832F0E0628A4B4D
:101710001A60C9B2012905D1874A126852F0807255
:10172000854B1A60C1E0844A126832F0E062824B55
:101730001A60C9B2012905D17F4A126852F00072BD
:101740007D4B1A60B1E07C4A126832F0E0627A4B5D
:101750001A60C9B2012905D1774A126852F0806235
:10176000754B1A60A1E0744A126832F08042724BE5
:101770001A60C9B2012905D16F4A126852F080423D
:101780006D4B1A6091E06C4A126832F000526A4B5D
:101790001A60C9B2012905D1674A126852F0005295
:1017A000654B1A6081E0644A126832F08052624BE5
:1017B0001A60C9B2012905D15F4A126852F08052FD
:1017C0005D4B1A6071E05C4A126832F400025A4BB9
:1017D0001A60C9B2012905D1574A126852F40002B1
:1017E000554B1A6061E0544A126832F48002524B41
:1017F0001A60C9B2012905D14F4A126852F4800219
:101800004D4B1A6051E04C4A126832F400124A4BB8
:101810001A60C9B2012905D1474A126852F4001270
:10182000454B1A6041E0464A126883029B0A9A437C
:10183000434B1A60C9B2012906D1414A126883029A
:101840009B0A1A433E4B1A602FE03D4A126832F45D
:10185000C0123B4B1A60C9B2012905D1384A12683F
:1018600052F40022364B1A601FE0354A126832F4F7
:10187000C012334B1A60C9B2012905D1304A12682F
:1018800052F480122E4B1A600FE02D4A126832F487
:10189000C0122B4B1A60C9B2012905D1284A12681F
:1018A00052F4C012264B1A60FFE7F0BC704730B408
:1018B00000220F2311F00304E4B2A400A3401A0095
:1018C000204BC9B28C1053F8243093431D4CC9B23D
:1018D0008D1044F825301B4BC9B28C1053F82430BE
:1018E000C0B211F00304E4B2A40010FA04F42343DC
:1018F000144CC9B28D1044F8253030BC704700003C
:101900002000014024000140280001402C0001403B
:10191000300001403400014020000040000400403D
:101920000000024000000440000008400000104099
:10193000000018400000204004000140FEFFFF7F2F
:101940001C000140080001400021DFF888221268D5
:10195000110031F00C610143DFF87822116070470B
:10196000F0B400210022002300240025DFF8646287
:10197000366816F00C0632001600002E04D0042E35
:1019800014D0082E16D063E0DFF84C623668B6013A
:1019900008D5DFF848623668B60503D5DFF840623F
:1019A000066002E0DFF83C62066054E0DFF8346273
:1019B000066050E0DFF81C62366816F480363400AA
:1019C000DFF810623668DFF820723E40330013F013
:1019D000C04F06D113F47016B6F5701F01D0022661
:1019E00000E00126C3F383475B0E13F030033B4353
:1019F000F318002C05D1DFF8F46106FB03F606604E
:101A000018E0DFF8D0613668B6030ED5DFF8CC6198
:101A1000366816F440563100090BDFF8C8618F1C98
:101A2000B6FBF7F65E43066004E0DFF8B86106FB3C
:101A300003F60660DFF89C613668002E07D406685E
:101A4000DFF8AC71BE4202D3DFF8A861066002E0A5
:101A5000DFF890610660DFF87C613668C6F3021635
:101A60003200DFF870613668360603D5DFF888513A
:101A7000AD5C00E000250668EE404660DFF854618A
:101A80003668C6F301263200DFF84861366876050D
:101A900003D5DFF86451AD5C00E000254668EE40F8
:101AA00086604C4E3668C6F3C1263200494E366811
:101AB000B60403D5DFF84051AD5C00E00025466870
:101AC000EE40C660434E3668C6F381363200414E62
:101AD0003668F60001D552F00402484EB65C350077
:101AE000C668B6FBF5F60661F0BC7047C9B20029BE
:101AF00005D0434A12680243414B1A6004E0404A51
:101B0000126882433E4B1A607047C9B2002905D063
:101B10003C4A126802433B4B1A6004E0394A12689F
:101B20008243384B1A607047C9B2002905D0364A43
:101B300012680243344B1A6004E0334A126882434D
:101B4000314B1A607047C9B2002905D02F4A12687C
:101B500002432E4B1A6004E02C4A126882432B4B3E
:101B60001A607047C9B2002905D0294A1268024399
:101B7000274B1A6004E0264A12688243244B1A60FD
:101B80007047C0B2012806D11449096851F03001EC
:101B9000124A116006E0114909687FF030021140D5
:101BA0000E4A11607047C0B201280CD10A49096879
:101BB00051F00071084A11600849096851F48071B8
:101BC000064A116005E00549096831F48071034A4D
:101BD000116070470410024030100240541002405F
:101BE000006CDC0200127A0000003C6000093D003D
:101BF00001A24A0400A24A04D0B10008D8B10008EA
:101C000014100240181002401C1002400C10024038
:101C10001010024010B440B2002808D50A01324B1F
:101C200040B210F00F04234403F8042C03E00A012F
:101C30002E4B40B21A5410BC704710B50400601E01
:101C4000B0F1807F01D301200EE0601E28490860BA
:101C50000F215FF0FF30FFF7DDFF0020254908600E
:101C6000072025490860002010BD80B52348006882
:101C70004FF47A71B0FBF1F021490978B0FBF1F033
:101C8000FFF7DBFF002800D0FEE700215FF0FF3008
:101C9000FFF7C0FF01BD1B480068194909784018CB
:101CA000184908607047174800687047884201D398
:101CB000401A03E05FF0FF32511A4018704770B5C8
:101CC0000400FFF7F0FF0500260016F1010F02D017
:101CD0000B4800783618FFF7E6FF2900FFF7E6FF0C
:101CE000B042F8D370BD000018ED00E000E400E061
:101CF00014E000E018E000E010E000E01000002038
:101D000044010020B43E00200021334A11008279B2
:101D1000002A36D0304A126803689A432E4B1A6064
:101D20002E4A126803689A432C4B1A60027989186C
:101D30000A6803681A430A60294A126803689A43CA
:101D4000274B1A60274A126803689A43254B1A608A
:101D50004279102A0CD1224A126803681A43204B98
:101D60001A60204A126803681A431E4B1A600EE07C
:101D7000194A1100427989180A6803681A430A60EF
:101D800005E0027989180A6803689A430A60704777
:101D900000210160002101710C214171002181713C
:101DA00070471149086070470100002000220A4B6B
:101DB0001B680B401A000C4B1B680B4204D0002A16
:101DC00002D00123180001E000231800C0B27047C0
:101DD0000549086070470000000401400404014008
:101DE000080401400C0401401404014010B5040033
:101DF000764884420AD101214FF48040FFF7A3FEC8
:101E000000214FF48040FFF79EFE60E0704884425E
:101E10000AD101215FF40030FFF7A4FE00215FF436
:101E20000030FFF79FFE52E06A4884420AD1012148
:101E30005FF48020FFF796FE00215FF48020FFF71B
:101E400091FE44E0644884420AD101215FF40020FD
:101E5000FFF788FE00215FF40020FFF783FE36E0E5
:101E60005E4884420AD101215FF48010FFF77AFEB8
:101E700000215FF48010FFF775FE28E05848844287
:101E80000AD101215FF08070FFF75DFE00215FF055
:101E90008070FFF758FE1AE0524884420AD10121AF
:101EA0005FF00070FFF74FFE00215FF00070FFF75A
:101EB0004AFE0CE04C48844209D101215FF0806069
:101EC000FFF741FE00215FF08060FFF73CFE10BD90
:101ED0002DE9F04786B00400884600255FF0000A2F
:101EE000002600275FF00009B8F80C000028A14682
:101EF000208A05004CF6FF700540B8F8060005433F
:101F00002582A08905004EF6F3100540B8F80400BC
:101F1000B8F808100843B8F80A1008430543A5812B
:101F2000A08A05004FF6FF400540B8F80C000543B5
:101F3000A5826846FFF714FD2448814508D028484B
:101F4000814505D02748814502D02748814502D1E7
:101F50000398824601E0029882464FF47A70A0FB13
:101F60000A01000940EA01700909D8F8002000239D
:101F700001F0DCF805004FF47A70B5FBF0F00600D4
:101F80004FF47A70B5FBF0F100FB1150000107002F
:101F90004FF47A70B7FBF0F100FB1170B0F5FA7FE7
:101FA00004D24FF47A70B7FBF0F709E04FF47A707F
:101FB000B7FBF0F0471C102F02D300200700761C5F
:101FC00057EA0610208106B0BDE8F08700380140CE
:101FD0000044004000480040004C004000500040D9
:101FE0000060014000640140006801404FF4165158
:101FF0000160002181800021C180002101810C212C
:102000004181002181817047C9B2002904D08289B1
:1020100052F40052828104E082894DF6FF731A4027
:1020200082817047F0B4002300240025002689B285
:1020300040F66A17B94206000F00FFB27F09FFB2EF
:102040003B0089B211F01F073C000127A7403D006B
:10205000012B01D10C3604E0022B01D1103600E037
:102060001436D2B2002A03D037682F43376002E01B
:102070003768AF433760F0BC7047D2B2002A03D054
:10208000838A0B43838202E0838A8B438382704777
:10209000CA05D20D828070470200002089B2B1F5D6
:1020A000007F13880B4202D00123180001E00023B7
:1020B0001800C0B2704770B4030000240026002549
:1020C000002089B240F66A1291420A00D2B2520947
:1020D000D2B2150089B211F01F021600012212FAC5
:1020E00006F6012D02D19A89164006E0022D02D192
:1020F0001A8A164001E09A8A16400A0092B2120A21
:1021000092B21400012212FA04F41A881440002E2C
:1021100004D0002C02D00122100001E000221000A7
:10212000C0B270BC7047000010B50400DFF8340482
:1021300084420AD101214FF40060FFF704FD002121
:102140004FF40060FFF7FFFC87E0B4F1804F08D147
:1021500001210120FFF706FD00210120FFF702FD0C
:102160007BE0DFF80404844208D101210220FFF75C
:10217000F9FC00210220FFF7F5FC6EE0DFF8EC032C
:10218000844208D101210420FFF7ECFC0021042047
:10219000FFF7E8FC61E0DFF8D803844208D10121B1
:1021A0000820FFF7DFFC00210820FFF7DBFC54E0EC
:1021B000DFF8C003844208D101211020FFF7D2FCD0
:1021C00000211020FFF7CEFC47E0DFF8AC0384428B
:1021D00008D101212020FFF7C5FC00212020FFF7B6
:1021E000C1FC3AE0DFF8940384420AD101214FF4A4
:1021F0000050FFF7A8FC00214FF40050FFF7A3FCAC
:102200002BE0DFF87C0384420AD101215FF4002037
:10221000FFF799FC00215FF40020FFF794FC1CE01D
:10222000DFF8600384420AD101215FF48010FFF7D8
:102230008AFC00215FF48010FFF785FC0DE0DFF8D9
:102240004803844209D101215FF40010FFF77BFCB1
:1022500000215FF40010FFF776FC10BD0022038818
:102260001A00DFF80033984212D0B0F1804F0FD03F
:10227000DFF8F83298420BD0DFF8F432984207D0FA
:10228000DFF8F832984203D0DFF8DC32984204D10C
:102290004FF68F731A404B681A43DFF8D8329842D2
:1022A00008D0DFF8D432984204D04FF6FF431A40EA
:1022B0008B891A4302808B68C3620B8803858B7BF2
:1022C000038601238382704770B400230024002218
:1022D000058C4FF6FE7635400584058C2C008588EC
:1022E0002A00058B2B004FF68F752B404FF6FC759F
:1022F0002B400D882B434FF6FD752C408D892C43C8
:102300004D882C434FF6F7752C40CD892C434FF662
:10231000FB752C408D882C434FF6FF652A404FF605
:10232000FF552A400D8A2A434D8A2A43828003831F
:102330008D684563048470BC704770B4002300242A
:102340000022058C4FF6EF7635400584058C2C0075
:1023500085882A00058B2B0048F6FF752B404FF629
:10236000FF452B400D8853EA05234FF6DF752C40BF
:102370008D8954EA05144D8854EA05144FF67F758B
:102380002C40CD8954EA05144FF6BF752C408D883A
:1023900054EA05144FF6FF352A404FF2FF752A40E4
:1023A0000D8A52EA85024D8A52EA850282800383B1
:1023B0008D688563048470BC704770B4002300246A
:1023C0000022058C4FF6FF6635400584058C2C00F5
:1023D00085882A00858B2B004FF68F752B404FF692
:1023E000FC752B400D882B434FF6FF552C408D89F3
:1023F00054EA05244D8854EA05244FF2FF752C4019
:10240000CD8954EA05244FF6FF352C408D8854EAD7
:1024100005244EF6FF752A404DF6FF752A400D8AB9
:1024200052EA05124D8A52EA0512828083838D6832
:10243000C563048470BC704770B40023002400227C
:10244000058C4EF6FF7635400584058C2C0085887A
:102450002A00858B2B0048F6FF752B404FF6FF4571
:102460002B400D8853EA05234DF6FF752C408D89CE
:1024700054EA05344D8854EA05344BF6FF752A407A
:102480000D8A52EA8512828083838D6805640484F4
:1024900070BC7047C9B2002904D0028852F0010212
:1024A000028004E002884FF6FE731A4002807047F3
:1024B000C9B2002906D0B0F8442052F40042A0F876
:1024C000442005E0B0F844205204520CA0F8442007
:1024D0007047D2B2002A03D083890B43838102E084
:1024E00083898B4383817047002203881A004FF64B
:1024F0008F731A400A4302807047C9B2002904D082
:10250000028852F08002028004E002884FF67F7356
:102510001A40028070470022038B1A004FF6F773AF
:102520001A400A43028370470022038B1A004FF2BD
:10253000FF731A4052EA0122028370470022838B04
:102540001A004FF6F7731A400A438283704700223D
:10255000838B1A004FF2FF731A4052EA01228283E2
:1025600070470000002C01400004004000080040BB
:10257000000C0040001000400014004000340140F6
:10258000004C0140005001400054014010B40022B2
:1025900003681A006FF30E128B680C6A23430C69F0
:1025A00023434C6923438C692343CC6923434C6AFE
:1025B00023438C6A23431A430260CB6843600B6851
:1025C00083604B68C36010BC7047C9B2002904D057
:1025D000026852F00102026004E002684FF6FE73E6
:1025E0001A4002607047D2B2002A03D003680B433E
:1025F000036002E003688B43036070470100002022
:102600000022CB0003D50E4B1B681A0002E00D4BD5
:102610001B681A000A4202D00123180001E00023BF
:102620001800C0B27047C10002D50449086001E03B
:1026300001490860704700000400024004040240A1
:10264000000402400000024010B5040033488442F8
:102650000AD101214FF48050FFF775FA00214FF4A1
:102660008050FFF770FA28E02D4884420AD10121FA
:102670004FF48040FFF776FA00214FF48040FFF7D7
:1026800071FA1AE0274884420AD101214FF4004030
:10269000FFF768FA00214FF40040FFF763FA0CE0FF
:1026A000B4F1402F09D101215FF48030FFF75AFACD
:1026B00000215FF48030FFF755FA10BD10B40022FE
:1026C00003881A0012F441528B891B0404D58388B5
:1026D00053F48073838004E083884FF6FF642340C3
:1026E00083800B884C8823438C882343CC882343E6
:1026F0000C8923434C8923438C896404640C234351
:10270000CC8923431A430280838B4FF2FF7423400A
:1027100083830B8A038210BC7047000000300140A5
:1027200000380040003C0040002101800021418031
:10273000002181800021C18000210181002141818F
:10274000002181810021C181072101827047C9B226
:10275000002904D0028852F04002028004E002887E
:102760004FF6BF731A4002807047020000201389A1
:102770000B4202D00123180001E000231800C0B270
:102780007047000010B50400504884420AD101216E
:102790005FF40010FFF7E6F900215FF40010FFF787
:1027A000E1F91AE04A4884420AD101215FF480002D
:1027B000FFF7D8F900215FF48000FFF7D3F90CE0B0
:1027C0004448844209D101215FF40000FFF7CAF9AF
:1027D00000215FF40000FFF7C5F910BD2DE9F043BB
:1027E00085B004000D005FF0000900260427DFF823
:1027F000E880A088814619F47F496846FFF7B0F861
:10280000029880463548B8FBF0F0060056EA090900
:10281000A4F8049020884FF6FE7108402080002024
:10282000814628682E4988420ED228684000B8FBAD
:10283000F0F00700BFB2042F01DA0420070057EAC6
:102840000909701C208426E0E8884BF6FF71884255
:1028500006D1286803214843B8FBF0F0070007E0E1
:10286000286819214843B8FBF0F0070057F4804767
:10287000380501D157F0010757F4004050EA090923
:10288000B6B24FF4967000FB06F04FF47A7190FBED
:10289000F1F0401C2084A4F81C90208850F0010026
:1028A0002080208881464FF6F53010EA0909A88873
:1028B0006989084350EA0909A4F80090A889298980
:1028C0000843208105B0BDE8F083000000540040BB
:1028D00000580040005C014000127A0040420F00A6
:1028E000A186010041F288310160002181804BF610
:1028F000FF71C18000210181002141814FF480419D
:1029000081817047C9B2002904D0028852F00102C7
:10291000028004E002884FF6FE731A40028070477E
:10292000C9B2002904D0028852F48072028004E007
:1029300002884FF6FF631A4002807047C9B200292F
:1029400004D0028852F40072028004E002884FF63C
:10295000FF531A4002807047C9B2002904D0028890
:1029600052F48062028004E002884FF6FF331A407E
:1029700002807047D2B2002A02D051F0010101E07A
:1029800011F0FE01C9B20182704789B2B1F5006F42
:1029900004D1028852F40062028004E002884FF2FF
:1029A000FF731A400280704782B0020000200023AB
:1029B00001930023009300920B0F019321F07F41BC
:1029C000019B002B03D0009B1433009303E0090C00
:1029D000009B18330093009B1B680B4202D001231D
:1029E000180001E000231800C0B202B070470000D8
:1029F00010B50400DFF80407844209D101215FF01B
:102A00000070FFF7AFF800215FF00070FFF7AAF841
:102A100010BD30B402000020002314687FF00205CE
:102A20002C401460146854F0010414605468E407E6
:102A300005D44FF6FF74A34201D05B1CF6E754683F
:102A4000E40702D40024200073E08C79012C04D127
:102A5000146854F08004146004E014687FF080056A
:102A60002C401460CC79012C04D1146854F040043B
:102A7000146004E014687FF040052C4014600C7A68
:102A8000012C04D1146854F02004146004E014688C
:102A90007FF020052C4014604C7A012C04D114687E
:102AA00054F01004146004E014687FF010052C400A
:102AB00014608C7A012C04D1146854F0080414605A
:102AC00004E014687FF008052C401460CC7A012CD7
:102AD00004D1146854F00404146004E014687FF016
:102AE00004052C4014608C78CD782D0655EA84744A
:102AF0000D7954EA05444D7954EA05540D886D1E4C
:102B00002C43D4611468640864001460002423001A
:102B10005468E40705D54FF6FF74A34201D05B1C4F
:102B2000F6E75468E40702D50024200001E0012400
:102B30002000C0B230BC704730B4002201238C7A30
:102B4000A3401A00D0F8003253F00103C0F800325D
:102B5000D0F81C329343C0F81C320B7B002B16D1EB
:102B6000D0F80C329343C0F80C328B7A00EBC303DD
:102B7000CC884D8855EA0444C3F840428B7A00EB78
:102B8000C3038C880D8855EA0444C3F844420B7B88
:102B9000012B16D1D0F80C321343C0F80C328B7ACB
:102BA00000EBC3030C884D8855EA0444C3F8404247
:102BB0008B7A00EBC3038C88CD8855EA0444C3F8B4
:102BC0004442CB7A002B05D1D0F804329343C0F8AD
:102BD000043204E0D0F804321343C0F804320B8905
:102BE000002B04D1D0F814329343C0F814320B896F
:102BF000012B04D1D0F814321343C0F814324B7BAC
:102C0000012B04D1D0F81C321343C0F81C32D0F889
:102C100000325B085B00C0F8003230BC7047002116
:102C200081710021C17100210172002141720021D6
:102C300081720021C172002181700021C1700321C5
:102C400001710221417101210180704730B40200FD
:102C5000002093685B0102D5002318000DE0936803
:102C60001B0102D50123180007E09368DB0002D5A1
:102C70000223180001E004231800C0B2042875D014
:102C8000C0B203011344D3F8803113F00103C0B282
:102C900004011444C4F880310B7A002B0FD1C0B268
:102CA00003011344D3F880310C684D7A55EA44543B
:102CB0002343C0B204011444C4F8803110E0C0B210
:102CC00003011344D3F880314C680D7A55EAC404EB
:102CD0004D7A2C432343C0B204011444C4F880311C
:102CE0008B7A13F00F038B72C0B203011344D3F835
:102CF00084311B091B01C0B204011444C4F884319F
:102D0000C0B203011344D3F884318C7A2343C0B298
:102D100004011444C4F884318B7B4C7B240454EAB2
:102D200003630C7B53EA0423CC7A2343C0B204012F
:102D30001444C4F888318B7C4C7C240454EA03632B
:102D40000C7C53EA0423CC7B2343C0B2040114441B
:102D5000C4F88C31C0B203011344D3F8803153F06E
:102D60000103C0B204011444C4F88031C0B230BCC5
:102D70007047C9B20B010344D3F8B03113F0040318
:102D80001372137A002B07D1C9B20B010344D3F895
:102D9000B0315B0D136006E0C9B20B010344D3F8F8
:102DA000B031DB085360C9B20B010344D3F8B03132
:102DB00013F002035372C9B20B010344D3F8B431C8
:102DC00013F00F039372C9B20B010344D3F8B4316B
:102DD0001B0AD374C9B20B010344D3F8B831D372C0
:102DE000C9B20B010344D3F8B8311B0A1373C9B23B
:102DF0000B010344D3F8B8311B0C5373C9B20B0158
:102E00000344D3F8B8311B0E9373C9B20B010344CA
:102E1000D3F8BC31D373C9B20B010344D3F8BC312E
:102E20001B0A1374C9B20B010344D3F8BC311B0C49
:102E30005374C9B20B010344D3F8BC311B0E937415
:102E4000C9B2002904D1C36853F02003C36003E072
:102E5000036953F020030361704702000020C9B2E8
:102E6000002904D1D36813F00303180009E0C9B2A4
:102E7000012904D1136913F00303180001E00023B2
:102E80001800C0B2704730B4020000204FF6FF7344
:102E9000C9B200291AD114687FF002052C4054F001
:102EA00001041460546814F00304012C03D0002BB7
:102EB00001D05B1EF6E7546814F00304012C02D025
:102EC000002420003AE00124200037E0C9B20129A3
:102ED00015D11468A408A4001460546814F0030FFA
:102EE00003D0002B01D05B1EF7E7546814F0030FEA
:102EF00002D00024200021E0012420001EE0C9B2FD
:102F0000022919D114686408640054F002041460A2
:102F1000546814F00304022C03D0002B01D05B1E74
:102F2000F6E7546814F00304022C02D000242000B9
:102F300004E00124200001E000242000C0B230BCE5
:102F40007047D2B2002A03D043690B43436102E0C9
:102F500043698B434361704770B504000D00002640
:102F6000606928427BD02800012821D0022825D082
:102F7000042829D008282DD0102831D0202835D079
:102F8000402839D0B0F5807F48D0B0F5007F4BD0D5
:102F9000B0F5806F4ED0B0F5006F51D0B0F5004F56
:102FA00054D0B0F5803F2DD0B0F5003F30D053E085
:102FB0005349A06800F0A6F8060052E00321E0683B
:102FC00000F0A0F806004CE00821E06800F09AF854
:102FD000060046E01021E06800F094F8060040E0AA
:102FE0000321206900F08EF806003AE008212069EC
:102FF00000F088F8060034E01021206900F082F823
:1030000006002EE00821606800F07CF8060028E049
:103010001021606800F076F8060022E00121A06926
:1030200000F070F806001CE00221A06900F06AF8C8
:10303000060016E00421A06900F064F8060010E024
:103040007021A06900F05EF806000AE004216068C3
:1030500000F058F8060004E00020060001E000201F
:1030600006003000C0B270BD0A00012A1DD0042A3B
:103070001ED0082A1FD0202A20D0402A21D0B2F505
:10308000807F27D0B2F5007F27D0B2F5806F27D0A0
:10309000B2F5006F27D0B2F5004F29D0B2F5803FCE
:1030A00012D0B2F5003F12D027E0154A826024E02A
:1030B0000822C26021E01022C2601EE008220261E4
:1030C0001BE01022026118E00822426015E0102285
:1030D000426012E0042242600FE0042242600CE0F1
:1030E0000422426009E0002282610422426004E07E
:1030F0000022826104224260FFE7704700640040C2
:1031000001010100020000200A4202D00123180040
:1031100001E000231800C0B270470000C0B210F0F8
:103120007F01014A11607047002C00401B4213D1FF
:10313000094236D12AB18446B0FBF2F002FB10C23C
:10314000704700F06BB8FCD30022002370470B00DF
:103150000200002100207047904271EB030CF6D36F
:1031600070B5B1FA81F4B3FA83F52C1BA340C4F116
:10317000200532FA05F63343A2405FF00046E640F0
:1031800002E05B085FEA3202841A71EB030524BF98
:10319000204629467641F4D302000B00300000217E
:1031A00070BD012ACFD970B5140C20D0B1FA81F4CA
:1031B000B2FA82F5C4F120046419B4F12006D6D322
:1031C000B2405FF00044F440002502E052085FEA9C
:1031D0003303C61A71EB020E24BF304671466441B8
:1031E0006D41F3D302000B002000290070BD0C4696
:1031F000B1FBF2F102FB11452D0445EA1045B5FB88
:10320000F2F402FB145580B240EA0545B5FBF2F03A
:1032100002FB105240EA044070BD000070470000FD
:1032200080B500F00EF800F073F80120DFF8281DDB
:10323000D1F8D4108847DFF8200DD0F8C8008047B7
:1032400001BD70B50020DFF8101D08700020DFF808
:10325000081D487004240025DFF8086C2A002100AE
:10326000300000F08DFF0020DFF8EC1C8870032098
:10327000DFF8E41CC870DFF8F00BDFF8DC1C8860B6
:10328000DFF8E80BDFF8D01CC860DFF8E40BDFF8EC
:10329000C81C08610020DFF8C01C08750020DFF89A
:1032A000B81C48750020DFF8B01C88750120DFF8D5
:1032B000A81CC8750020DFF8A01C08760020DFF8E5
:1032C000981C4876DFF8900C0021C161DFF8880C6B
:1032D000002101620120DFF8801C81F82400DFF862
:1032E000940BDFF8741CC1F888002420DFF8681CF8
:1032F000A1F88C002420DFF8601C81F88E004FF4C8
:10330000A260DFF8541CC1F8900000F038F870BDDE
:103310000FF24910DFF8401CC1F8B4000FF2411061
:10332000DFF8341CC1F8B8000FF26930DFF8281C50
:10333000C1F8BC000FF2C530DFF81C1CC1F8C0009A
:103340000FF2E950DFF8101CC1F8C4000FF245601D
:10335000DFF8041CC1F8C8000FF2B960DFF8F81BF1
:10336000C1F8CC000FF2D160DFF8EC1BC1F8D0003F
:103370000FF2DD60DFF8E01BC1F8D40070472DE9E3
:10338000F04104240025DFF8D00BD0F888602A0033
:103390002100300000F0F4FE20260027DFF8BC8B6F
:1033A0003A003100404600F0EBFEDFF8AC0BD0F8FD
:1033B0008800DFF8A41BC1F894000020DFF8981BF8
:1033C000C1F898000020DFF8901BC1F89C00002095
:1033D000DFF8841BC1F8A0000020DFF87C1BC1F8D7
:1033E000A4000020DFF8701BC1F8A8000020DFF85F
:1033F000681BC1F8AC00DFF8600BB0F88C00401E11
:10340000DFF8541BC1F8B000BDE8F08138B5040006
:103410000D00A8686968401C884206D0A868E96960
:10342000884204D16868002801D1002014E028688F
:10343000A9682422514308442100242200F0D4FE2C
:10344000A868401CA860E869A968884201D20020E9
:10345000A860A8682861012032BD000001207047E3
:103460002DE9F04182B004000D001600DFF8880C51
:103470004078022819D10121DFF8F00B01F01AF889
:10348000DFF8EC1BDFF8E40B01F030F8DFF8E00BBD
:1034900000780028F4D13200D2B2DFF85C0C017E53
:1034A000DFF8540CC07D00F029F9F6B2002E25D1CA
:1034B0000121DFF8B80B00F06DFF0121DFF8AC0B44
:1034C00000F0B5FF0121DFF8A40B00F08BFF210015
:1034D000C9B2DFF8980B00F0E9FE2900C9B2DFF8A5
:1034E0008C0B00F0FFFE0121DFF8800B01F010F8DB
:1034F0001121DFF8780B01F027F892E0F6B2012EE7
:1035000040F08F800121DFF8640B00F043FF2100C1
:10351000C9B2DFF8580B00F0C9FE0027DFF8D80B5E
:103520004078022802D10620070001E003200700AE
:10353000FFB2390089B2DFF8340B01F077FA0621C7
:10354000DFF8280B01F023FB6946DFF8200B01F0C0
:10355000B5F99DF8000050F008008DF800000099C2
:10356000DFF8080B01F07CF80121DFF8000B01F017
:10357000D6FA5FF00008EDB2002D0FD0022D13D067
:103580000FD3042D16D012D3062D19D015D3082D24
:103590001CD018D30A2D1FD01BD320E0002080465A
:1035A0001FE0012080461CE00220804619E0032035
:1035B000804616E00420804613E00520804610E097
:1035C000062080460DE0072080460AE0082080465D
:1035D00007E00920804604E00A20804601E0002040
:1035E00080464146C9B2DFF8840A01F0ECFA0121B5
:1035F000DFF8780A00F01BFF0121DFF8700A00F005
:10360000F1FE2900C9B2DFF8640A00F06BFE012167
:10361000DFF8580A00F07CFF1121DFF8500A00F0B3
:1036200093FF0220DFF8D01A0870DFF8CC0A047587
:10363000DFF8C40A4575DFF8C00A80F82460DFF8B7
:10364000B80A007D002805D0022809D014D3032829
:103650000CD017E0DFF8A00ADFF8A01AC16115E06E
:10366000DFF8940ADFF8981AC1610FE0DFF8880AE2
:10367000DFF8901AC16109E0DFF87C0ADFF8881AE8
:10368000C16103E0DFF8700A0021C1610120BDE8DB
:10369000F681000080B5DFF8600A4078022819D072
:1036A0000121DFF8C80900F005FFDFF8601ADFF834
:1036B000BC0900F01BFFDFF8540A00780028F4D1A1
:1036C0000021DFF8A80900F08DFE0021DFF89C0939
:1036D00001F079FA0021DFF8940900F003FE0020E0
:1036E000DFF8141A08700020DFF80C1A4875DFF8AC
:1036F000080A0021C161012002BD00002DE9F0414E
:1037000082B004000D001600DFF8EC0900780228F2
:1037100019D10121DFF8540900F0CCFEDFF8F019CF
:10372000DFF8480900F0E2FEDFF8E409007800283D
:10373000F4D13200D2B2DFF8C009417DDFF8B80918
:10374000007DFFF78DFEF6B2002E20D10121DFF8BB
:103750001C0900F01FFE0121DFF8100900F067FED0
:103760000121DFF8080900F03DFE2100C9B2DFF8B1
:10377000FC0800F0D5FD2900C9B2DFF8F00800F020
:10378000EBFDA821DFF8E40800F00FFF8DE0F6B2B2
:10379000012E40F08A800121DFF8D00800F0FAFD08
:1037A0002100C9B2DFF8C40800F0BAFD0027DFF835
:1037B00048090078022802D10620070001E0032012
:1037C0000700FFB2390089B2DFF8A00801F02EF936
:1037D0000621DFF8980801F0DAF96946DFF88C086D
:1037E00001F06CF89DF8000050F008008DF8000022
:1037F0000099DFF8780800F033FF0121DFF86C084A
:1038000001F0A9F95FF00008EDB2002D0FD0022DF4
:1038100013D00FD3042D16D012D3062D19D015D3E3
:10382000082D1CD018D30A2D1FD01BD320E0002058
:1038300080461FE0012080461CE00220804619E0FF
:103840000320804616E00420804613E005208046D1
:1038500010E0062080460DE0072080460AE00820A0
:10386000804607E00920804604E00A20804601E007
:10387000002080464146C9B2DFF8980801F0A3F95C
:103880000121DFF8900800F0D2FD0121DFF8840863
:1038900000F0A8FD2900C9B2DFF8780800F05CFD4F
:1038A000A821DFF8700800F080FE0220DFF8481839
:1038B0004870DFF84408C475DFF83C080576DFF887
:1038C000380880F82460DFF83008C07D00280ED06A
:1038D000012806D0022810D0042814D0062818D0B9
:1038E0001DE0DFF81408DFF8301801621BE0DFF894
:1038F0000808DFF82818016215E0DFF8FC07DFF898
:10390000201801620FE0DFF8F007DFF818180162F5
:1039100009E0DFF8E407DFF81018016203E0DFF8E0
:10392000D807002101620120BDE8F68180B5DFF8EB
:10393000C8070078022819D00121DFF8D80700F065
:10394000B9FDDFF8E817DFF8CC0700F0CFFDDFF8AE
:10395000DC0700780028F4D10021DFF8B80700F078
:1039600041FD0021DFF8AC0701F02DF90021DFF85F
:10397000A40700F0F1FC0020DFF87C17487000205D
:10398000DFF874170876DFF8700700210162012064
:1039900002BD000080B50121DFF8780700F08AFD44
:1039A000DFF88C17DFF86C0700F0A0FDDFF8800768
:1039B00000780028F4D10020DFF83C1708700020C0
:1039C000DFF8341748700020DFF82C170875002046
:1039D000DFF8241748750020DFF81C1788750120D0
:1039E000DFF81417C8750020DFF80C1708760020E0
:1039F000DFF8041748760120DFF8FC1681F8240070
:103A0000DFF8F4060021C161DFF8EC060021016255
:103A1000012002BD38B504000D000123DFF8380590
:103A2000E4B2204410F125022100C9B2DFF8E40617
:103A300000F016FC012032BD13B50400012301AAD9
:103A40002100C9B2DFF8CC0600F01DFC012016BD34
:103A500010B50400DFF8DC16DFF8B80600F01EFD34
:103A6000DFF8940690F834006A28F3D1DFF888066E
:103A700090F83400DFF880164871012010BD000076
:103A800010B58AB00400DFF8D004007802284FD1C6
:103A90006846242101F0B4F8B4F9000000EE100AE1
:103AA000B8EEC00ADFF8B004D0ED070A20EE200A15
:103AB0008DED000AB4F9020000EE100AB8EEC00A5B
:103AC000DFF89404D0ED070A20EE200A8DED010AFC
:103AD000B4F9040000EE100AB8EEC00ADFF878046A
:103AE000D0ED070A20EE200A8DED020A07AAD4F8CD
:103AF000060019214843002110605160608900EEE2
:103B0000100AB8EE400ADFED970A80EE200AF3EEC5
:103B1000090A30EE200A8DED060ADFF840146846E7
:103B2000FFF774FCDFF810066946242200F06CFBF6
:103B30000AB010BD10B58AB00400DFF81C0440784C
:103B400002286CD16846242101F05AF8B4F900002B
:103B500000EE100AB8EEC00ADFF8FC03D0ED080A48
:103B600020EE200A10EE100A01F04EF80022DFF8D5
:103B7000CC3501F071F801F09BF90390B4F9020023
:103B800000EE100AB8EEC00ADFF8CC03D0ED080A48
:103B900020EE200A10EE100A01F036F80022DFF8BD
:103BA0009C3501F059F801F083F90490B4F9040050
:103BB00000EE100AB8EEC00ADFF89C03D0ED080A48
:103BC00020EE200A10EE100A01F01EF80022DFF8A5
:103BD0006C3501F041F801F06BF9059007AAD4F8B3
:103BE000060019214843002110605160608900EEF1
:103BF000100AB8EE400ADFED5B0A80EE200AF3EE11
:103C0000090A30EE200A8DED060AD4496846FFF70E
:103C1000FDFBDFF824056946242200F0F5FA0AB01E
:103C200010BD000010B58AB00400CB48007802280F
:103C300040F09580C8484078022840F0908068465F
:103C4000242100F0DDFFB4F9000000EE100AB8EE08
:103C5000C00AC148D0ED070A20EE200A8DED000A07
:103C6000B4F9020000EE100AB8EEC00ABA48D0ED6E
:103C7000070A20EE200A8DED010AB4F9040000EED7
:103C8000100AB8EEC00AB448D0ED070A20EE200AA8
:103C90008DED020AB4F9060000EE100AB8EEC00A73
:103CA000AD48D0ED080A20EE200A10EE100A00F010
:103CB000ABFF0022DFF8843400F0CEFF01F0F8F80B
:103CC0000390B4F9080000EE100AB8EEC00AA2484A
:103CD000D0ED080A20EE200A10EE100A00F094FF42
:103CE0000022DFF8583400F0B7FF01F0E1F804904B
:103CF000B4F90A0000EE100AB8EEC00A9648D0EDFA
:103D0000080A20EE200A10EE100A00F07DFF0022C3
:103D1000DFF8283400F0A0FF01F0CAF8059007AAE8
:103D2000E06819214843002110605160208A00EEAC
:103D3000100AB8EE400ADFED0B0A80EE200AF3EE1F
:103D4000090A30EE200A8DED060A84496846FFF71D
:103D50005DFBDFF8E4036946242200F055FA0AB05F
:103D600010BD00000000804300B585B00020DFF8E2
:103D7000D01308700020DFF8CC1308800020DFF893
:103D8000C813088001A80021002200230EC00C38AF
:103D9000DFF8AC13DFF87C0300F090FEDFF8A0033F
:103DA000007800285BD003230DF10A024021DFF8E0
:103DB000640300F055FADFF88C13DFF8580300F0C5
:103DC0005EFEDFF880030088411EDFF87823118053
:103DD00080B2002827D0DFF87013DFF8380300F036
:103DE0007FFEDFF864030088002803D002280ED08D
:103DF00006D312E0022201A9C64800F040FBE0E72A
:103E000002220DF10601C34800F039FBD9E7022276
:103E100002A9C04800F033FBD3E70222CB49BD48DA
:103E200000F02DFBCDE76946BA4800F0CFFA9DF8C7
:103E30000000C0F38000C0B2002803D0C449B548D8
:103E400000F011FBC24890F900008DF80E00C04848
:103E500090F901008DF80F0001A8FFF711FE05B0E1
:103E600000BD00004A3B002075400008B14000083A
:103E7000003001404817002000B585B00020B5494A
:103E800008700020B44908800020B449088001A8C7
:103E90000021002200230EC00C38AE499D4800F0DE
:103EA0000DFEAC480078002853D003230DF10A0220
:103EB0004021984800F0D4F9A749964800F0DFFD6A
:103EC000A5480088411EA44A118080B2002824D051
:103ED000A249904800F004FEA0480088002803D0C2
:103EE00002280ED006D312E0022201A9894800F070
:103EF000C6FAE5E702220DF10601864800F0BFFA96
:103F0000DEE7022202A9834800F0B9FAD8E70222CC
:103F10008E49804800F0B3FAD2E769467D4800F048
:103F200055FA9DF80000C0F38000C0B2002803D00D
:103F30008B49784800F097FA894890F900008DF88D
:103F40000E00874890F901008DF80F0001A8FFF7D7
:103F5000F1FD05B000BD0000483B0020DC3B002027
:103F600000B587B000207F49087000207E49088096
:103F700000207E49088001A8142100F041FE794903
:103F8000644800F09BFD7748007800286BD003233D
:103F900004AA40215F4800F063F973495D4800F0CE
:103FA0006EFD71480088411E6F4A118080B2002862
:103FB0003DD06E49574800F093FD6C4800880028BA
:103FC00008D0022813D00CD304281DD016D30528FE
:103FD00021D026E002220DF10A014E4800F04FFAEE
:103FE000DFE7022203A94B4800F049FAD9E7022291
:103FF0000DF10E01474800F042FAD2E7022201A972
:10400000444800F03CFACCE702220DF10601414899
:1040100000F035FAC5E7022202A93E4800F02FFA67
:10402000BFE7022249493B4800F029FAB9E769464F
:10403000384800F0CBF99DF80000C0F38000C0B212
:10404000002803D04A49334800F00DFA484890F957
:1040500000008DF81400464890F901008DF8150015
:1040600001A8FFF7DFFD07B000BD0000503B0020B6
:10407000EE3E002073B5040015001E003D4884424A
:1040800014D110203C4908604FF47A73012201A931
:10409000200000F06CFF4FF47A73320092B22900D6
:1040A000200000F064FF102034490860002076BD35
:1040B00073B5040015001E002E4884421AD19DF8E5
:1040C000040050F080008DF8040010202A49086098
:1040D0004FF47A73012201A9200000F048FF4FF449
:1040E0007A73320092B22900200000F077FF10208E
:1040F00022490860002076BD483B002023DB793D43
:1041000023DBF93D23DB793E23DBF93EEF3E002044
:10411000F03E0020503B002000008C4000000C418D
:1041200000008C4100000C4200008C42F13E002057
:10413000F23E00207C3B0020503E002000408F409B
:10414000F33E0020D23E0020D43E0020B03B0020B1
:10415000D63E0020F43E0020D83E0020DA3E00206B
:10416000DC3E0020F53E0020DE3E0020E03E002048
:10417000E23E0020003001401408014010080140D8
:1041800062F30F2262F31F42401810F0030308D0BD
:10419000C91A1FD3DB0748BF00F8012D28BF20F83C
:1041A000022D130030B414461546103928BF20E9FB
:1041B0003C00FAD8490728BF20E90C0048BF40F866
:1041C000042D890028BF20F8022D48BF00F8012DDA
:1041D00030BC7047C91818BF00F8012DCB0728BFA5
:1041E00000F8012D7047000062B38B0708D0521E03
:1041F00011F8013B00F8013B00F024808B07F6D159
:10420000830740F0208000BF103A07D330B4B1E8F4
:104210003810103AA0E83810F9D230BC530724BF48
:10422000B1E80810A0E8081044BF51F8043B40F87A
:10423000043BD20724BF31F8022B20F8022B44BFE5
:104240000B7803707047083A07D3B1E80810083AB2
:1042500040F8043B40F804CBF7D25307E4E70000F2
:104260002DE9F04104000D0016001F003B009BB239
:1042700032002900C9B2A068D4F804C0E0478046E3
:104280004046BDE8F0812DE9F04104000D00160024
:104290001F003B009BB232002900C9B2A068D4F8CD
:1042A00000C0E04780464046BDE8F08170B582B06E
:1042B00004000D0001236A4610212000FFF7D0FF03
:1042C0000600002E0CD19DF8000065F383008DF8E8
:1042D000000001236A4610212000FFF7D4FF0600EA
:1042E000300076BD70B582B004000D0001236A462F
:1042F00010212000FFF7B4FF0600002E0ED19DF81C
:10430000000010F00F0050EA05108DF800000123A6
:104310006A4610212000FFF7B6FF0600300076BD88
:1043200070B582B004000D0001236A4611212000FF
:10433000FFF796FF0600002E0CD19DF8000065F3F4
:1043400043008DF8000001236A4611212000FFF789
:104350009AFF0600300076BD70B582B004000D00F3
:1043600001236A4611212000FFF77AFF0600002E84
:104370000ED19DF8000010F00F0050EA05108DF8E6
:10438000000001236A4611212000FFF77CFF060090
:10439000300076BD70B582B004000D0001236A467E
:1043A00012212000FFF75CFF0600002E0CD19DF8C3
:1043B000000065F386108DF8000001236A46122183
:1043C0002000FFF760FF0600300076BD70B50400E6
:1043D0000D0001232A001E212000FFF741FF0600E7
:1043E000300070BD70B582B004000D0001236A4634
:1043F00019212000FFF734FF0600002E15D19DF88B
:10440000000065F345108DF80000EDB2002D0CD0D2
:104410009DF8000065F382008DF8000001236A46D4
:1044200019212000FFF72FFF0600300076BD70B580
:1044300082B004000D0001236A465C212000FFF7D2
:104440000FFF0600002E0CD19DF8000065F304104C
:104450008DF8000001236A465C212000FFF713FF5E
:104460000600300076BD70B504000D0002232A005E
:1044700020212000FFF7F4FE0600300070BDF8B5E3
:1044800004000D001600F6B233009BB22A003E2154
:104490002000FFF7E5FE07003800F2BD70B504000C
:1044A0000D0001232A000F212000FFF7D9FE06008E
:1044B000300070BD70B582B004000D0001236A4663
:1044C00012212000FFF7CCFE0600002E0CD19DF833
:1044D000000065F300008DF8000001236A461221F8
:1044E0002000FFF7D0FE0600300076BD70B582B028
:1044F00004000D0001236A4612212000FFF7B0FEE0
:1045000006009DF8000010F001002870300076BD14
:1045100070B582B004000D0001236A46102120000E
:10452000FFF79EFE0600002E0CD19DF8000065F3FB
:1045300000008DF8000001236A4610212000FFF7DB
:10454000A2FE0600300076BD70B582B004000D00FA
:1045500001236A4617212000FFF782FE0600002E85
:1045600021D12800C0B200099DF8001060F3C301FA
:104570008DF800109DF8000065F346108DF80000DE
:104580009DF8000050F080008DF800009DF80000BC
:1045900010F0FB008DF8000001236A46172120006F
:1045A000FFF771FE0600300076BD70B584B00400E0
:1045B0000E0001236A4616212000FFF751FE050078
:1045C000002D4AD13000C0B200099DF8001060F300
:1045D00005118DF80010F6B2F0099DF8001060F397
:1045E00086118DF8001001236A4616212000FFF77E
:1045F0004AFE0500002D30D1012301AA152120001B
:10460000FFF72EFE0500002D27D19DF8040066F36C
:1046100001008DF80400012301AA15212000FFF7F5
:1046200032FE0500002D18D1012302AA132120001B
:10463000FFF716FE0500002D0FD13000C0B2C008F4
:104640009DF8081060F341018DF80810012302AABB
:1046500013212000FFF717FE0500280004B070BDED
:1046600032B586B00400012301AA0D212000FFF716
:10467000F7FD0500002D55D19DF818009DF8041098
:1046800060F300018DF804109DF81800C0B24008D6
:104690009DF8041060F341018DF804109DF8180096
:1046A000C0B280089DF8041060F382018DF80410F8
:1046B0009DF81800C0B2C0089DF8041060F3C30153
:1046C0008DF804109DF81800C0B200099DF8041080
:1046D00060F304118DF804109DF81800C0B2400971
:1046E0009DF8041060F345118DF804109DF8180032
:1046F000C0B280099DF8041060F386118DF8041093
:104700009DF8040010F07F009DF8181011F0800152
:1047100008438DF80400012301AA0D212000FFF7B2
:10472000B2FD0500002D06D101236A465E2120005E
:10473000FFF796FD0500002D06D1012305AA5F2194
:104740002000FFF78DFD0500002D55D19DF81900C3
:104750009DF8001060F300018DF800109DF819001D
:10476000C0B240089DF8001060F341018DF80010C0
:104770009DF81900C0B280089DF8001060F3820116
:104780008DF800109DF81900C0B2C0089DF8001007
:1047900060F3C3018DF800109DF81900C0B2000944
:1047A0009DF8001060F304118DF800109DF81900B9
:1047B000C0B240099DF8001060F345118DF800105B
:1047C0009DF81900C0B280099DF8001060F38611B1
:1047D0008DF800109DF8000010F07F009DF8191072
:1047E00011F0800108438DF8000001236A465E2124
:1047F0002000FFF748FD0500002D06D1012303AA84
:1048000013212000FFF72CFD0500002D0ED19DF88F
:104810001A009DF80C1060F304118DF80C100123A0
:1048200003AA13212000FFF72EFD0500002D06D15D
:10483000012304AA1A212000FFF712FD0500002D14
:1048400010D19DF8100010F07F009DF81A1050EA6A
:10485000C1108DF81000012304AA1A212000FFF7CF
:1048600012FD0500002D1DD1012302AA58212000B0
:10487000FFF7F6FC05009DF81900FC21084204D161
:104880009DF81400FC21084206D09DF8080050F065
:1048900080008DF8080005E09DF8080010F07F000A
:1048A0008DF80800002D06D1012302AA582120000E
:1048B000FFF7E9FC0500280007B030BD7FB5040014
:1048C0000D00012301AA0D212000FFF7C9FC0600FD
:1048D000002E40F0A8809DF80400297860F30001C4
:1048E00029709DF80400C0B24008297860F34101A6
:1048F00029709DF80400C0B28008297860F3820115
:1049000029709DF80400C0B2C008297860F3C30183
:1049100029709DF80400C0B20009297860F30411E1
:1049200029709DF80400C0B24009297860F3451150
:1049300029709DF80400C0B28009297860F38611BF
:104940002970287810F07F009DF8041011F0800184
:104950000843287001236A465E212000FFF780FC8F
:104960000600002E5FD19DF80000697860F3000119
:1049700069709DF80000C0B24008697860F3410199
:1049800069709DF80000C0B28008697860F3820108
:1049900069709DF80000C0B2C008697860F3C30177
:1049A00069709DF80000C0B20009697860F30411D5
:1049B00069709DF80000C0B24009697860F3451144
:1049C00069709DF80000C0B28009697860F38611B3
:1049D0006970687810F07F009DF8001011F0800178
:1049E00008436870012302AA13212000FFF738FC56
:1049F0000600002E17D19DF80800C0B20009A97862
:104A000060F30001A970012303AA1A212000FFF717
:104A100027FC0600A87810F0FE009DF80C10C9B223
:104A200050EAD110A870300004B070BD7CB504000D
:104A30000D0001236A4607212000FFF711FC060044
:104A4000002E1AD128008DF80400ADB2280A9DF876
:104A5000001060F302018DF80010012301AA062165
:104A60002000FFF710FC0600002E06D101236A4645
:104A700007212000FFF707FC0600300076BD7CB55B
:104A800004000D00012301AA3A212000FFF7E8FBF2
:104A90000600002E10D101236A463B212000FFF7BB
:104AA000DFFB06009DF8000010F0070000029DF8F3
:104AB000041050FA81F02880300076BD70B582B0C5
:104AC00004000D0001236A463B212000FFF7C8FBCC
:104AD00006009DF80000C0B2C0092870300076BD05
:104AE0007CB504000D00012301AA3C212000FFF742
:104AF000B7FB0600002E10D101236A463D2120009D
:104B0000FFF7AEFB06009DF8000010F00300000266
:104B10009DF8041050FA81F02880300076BD70B501
:104B200082B004000D0001236A4608212000FFF72F
:104B300097FB0600002E0CD19DF8000065F30200E3
:104B40008DF8000001236A4608212000FFF79BFB37
:104B50000600300076BD70B582B004000D00012360
:104B60006A4608212000FFF77BFB0600002E0CD1CF
:104B70009DF8000065F3C5008DF8000001236A462A
:104B800008212000FFF77FFB0600300076BD70B5DE
:104B900082B004000D0001236A460A212000FFF7BD
:104BA0005FFB0600002E0CD19DF8000065F30200AB
:104BB0008DF8000001236A460A212000FFF763FBFD
:104BC0000600300076BD70B582B004000D000123F0
:104BD0006A460A212000FFF743FB0600002E0CD195
:104BE0009DF8000065F3C6008DF8000001236A46B9
:104BF0000A212000FFF747FB0600300076BD0000C9
:104C0000002200F085BB00005FF0FF0C1CEAD051D1
:104C100014BF614506E0C110400721F0E04101F1F9
:104C20006051704779B900F0004100020AD0B0FA33
:104C300080FC00FA0CF001F16051A1EB0C5101EB8A
:104C4000D0214005704741020CBF40F4E0016FF0F5
:104C500000010020704700002DE9F04140F2FF758F
:104C600081EA030C0CF0004C15EA11541DBF15EA43
:104C70001357AC42AF42E9E0BC41C1F31301C3F3A7
:104C80001303801A994143F4801304D2641E400038
:104C9000494180185941C90241EA5051B1FBF3F62C
:104CA00003FB1611A2FB0675D7EBC020A94102D267
:104CB000761E80185941C90241EA5051B1FBF3FEFA
:104CC00003FB1E11A2FB0E75D7EBC020A94103D236
:104CD000AEF1010E80185941890241EA90517605E2
:104CE00046EA8E2EB1FBF3F603FB1611A2FB067506
:104CF000D7EB8020A94102D2761E80185941C90203
:104D000041EA50514EEA060EB1FBF3F603FB1611D1
:104D1000A2FB0675D7EBC020A94102D2761E8018EF
:104D20005941C90241EA5051B1FBF3F703FB171196
:104D3000A2FB0735D3EBC020A94167F100070CBFE8
:104D4000004247F0010766F3D5274FEA1E31B80845
:104D500014F5806414DDBD0775F1004250EB0E5070
:104D600051EB045111F5801F5CBF41EA0C01BDE815
:104D7000F0814CF07F6141F0E0410020BDE8F0811E
:104D8000BD076D0840EA0E5041F48011D4F10104D2
:104D9000B4F120060ADAC4F120060200E04001FA6C
:104DA00006F3E1401843B24015430EE0342C14DC06
:104DB000C6F1200445EA40056D0820FA06F21543C5
:104DC00021FA06F0A1400D43002175F1004250F197
:104DD000000051EB0C01BDE8F08100205FEA0C01FE
:104DE000BDE8F081CFB992185B41B3FA83F704BFF5
:104DF000B2FA82F6BF190B3FB7F120062FBF02FAB5
:104E000006F3BB40C7F1200622FA06F638BF33434B
:104E1000BA401CB1E419641E2FE77F4231F0004113
:104E2000B1FA81F404BFB0FA80F6A4190B3CB4F1D6
:104E300020062FBF00FA06F1A140C4F1200620FA97
:104E400006F638BF3143A0403C1B16E7AC421ABF00
:104E500005EA1357AF4214E050EA41061CBF52EA7C
:104E60004306BFE750EA4107304661461CBF41EAAE
:104E70000551BDE8F08152EA430C08BFC143BDE8CB
:104E8000F08100204FF4001616EB410F98BF16EB8F
:104E9000430F08BF16EB410F24BFC14305E016EBDB
:104EA000430F0CBF61464CEA0551BDE8F08100009C
:104EB0004FEAF17CBCF1E04C2CBFBCF5001F11E0C7
:104EC0005FEA4C0C34BFBCF17F5F2EE05FEA9C0CC4
:104ED0004FEA0C1C4FEA3C0CC10071F100414CEB55
:104EE00050707047C90241EA5051C00218BF41F0EA
:104EF000010141F000414FEA6C50C0F10900212846
:104F000010D240EACC7CCCF1200C11FA0CF070F1FC
:104F10000040CCF1200C21FA0CF00CF0004C40EBDE
:104F20000C0070474FEACC707047490011F5001F24
:104F300004D84FEACC10FF30C0057047C81770473F
:104F400038B504000D002100C9B289B2DFF8A8030A
:104F5000FDF79EF88021DFF8A003FDF79DF80028FB
:104F6000F8D0200032BDEFF3108072B670472DE903
:104F7000F04704000D0016001F005FF000085FF00E
:104F800000095FF0000AFCF78EFE8246B6B2002EE2
:104F90001FD002212000FDF7E8FB002811D01FFAE6
:104FA00088F815F80800A08101212000FDF7DDFB3D
:104FB0000028F9D0A08900F0FF00814618F101080F
:104FC000761E002F05D0FCF76EFEB0EB0A00B8424B
:104FD000DCD31FFA88F84046BDE8F0872DE9F84396
:104FE00004000D0091461E005FF000080027FCF74A
:104FF0005AFE07001FFA89F9B9F1000F1DD00221EE
:105000002000FDF7B2FB002810D0A520A0810121CF
:105010002000FDF7AAFB0028F9D0A0891FFA88F824
:1050200005F8080018F10108B9F10109002E04D0B3
:10503000FCF739FEC01BB042DCD31FFA88F84046AB
:10504000BDE8F2832DE9F84F04000D0016001F00A3
:105050005FF0000A5FF000094FF480685FF40031F0
:105060002000FDF7A1FC00280BD019F101094846EA
:10507000414680B289B28842F0D35AF00100C0B2F2
:1050800091E04FF2FF712000FDF77FFC012120002D
:10509000FDF746FC99492000FDF786FC00280FD15A
:1050A00019F101094846414680B289B28842F1D3DC
:1050B00001212000FDF742FC5AF00200C0B272E06C
:1050C00000222900C9B22000FDF754FC8C492000C1
:1050D000FDF76AFC00280FD119F101094846414645
:1050E00080B289B28842F1D301212000FDF726FC6D
:1050F0005AF00400C0B256E0A08A0090208B0090C5
:105100005FF0000B58463900C0B2C9B288421FD2C6
:105110007C492000FDF748FC00280FD119F1010956
:105120004846414680B289B28842F1D3012120002D
:10513000FDF704FC5AF00800C0B234E05FFA8BFBC4
:1051400016F80B102000C9B201821BF1010BD9E740
:105150006D492000FDF728FC00280FD119F1010945
:105160004846414680B289B28842F1D301212000ED
:10517000FDF7E4FB5AF01000C0B214E0012120005A
:10518000FDF7DCFB208880050BD519F101094846A5
:10519000414680B289B28842F4D35AF02000C0B2AE
:1051A00001E05046C0B2BDE8F28F2DE9F84F04008F
:1051B0000D0016001F005FF0000A5FF000094FF4B9
:1051C00080685FF400312000FDF7EEFB00280BD073
:1051D00019F101094846414680B289B28842F0D3AC
:1051E0005AF00100C0B283E04FF2FF712000FDF7DA
:1051F000CCFB01212000FDF793FB40492000FDF787
:10520000D3FB00280FD119F101094846414680B26D
:1052100089B28842F1D301212000FDF78FFB5AF0BB
:105220000200C0B264E001222900C9B22000FDF7EB
:10523000A1FB00212000FDF78FFB31492000FDF785
:10524000B3FB00280FD119F101094846414680B24D
:1052500089B28842F1D301212000FDF76FFB5AF09B
:105260000400C0B244E0A08A0090208B00905FF060
:10527000000B58463900C0B2C9B288421FD2234938
:105280002000FDF791FB00280FD119F101094846D4
:10529000414680B289B28842F1D301212000FDF756
:1052A0004DFB5AF00800C0B222E02000008AC0B2D4
:1052B0005FFA8BFB06F80B001BF1010BD9E701210C
:1052C0002000FDF73BFB208880050BD519F1010973
:1052D0004846414680B289B28842F4D35AF0100061
:1052E000C0B205E001212000FDF736FB5046C0B2F8
:1052F000BDE8F28F000000000038014001000010FE
:105300000200001080000010040000104000001097
:1053100000B500BF130096469446103928BFA0E898
:105320000C50FAD85FEA417C28BF0CC048BF40F857
:10533000042BC90728BF20F8022B48BF00F8012B17
:1053400000BD000010B50400A4B2002C06D101205D
:10535000DFF8D41B09680882002008E0DFF8CC0BD6
:10536000006800688047DFF8C00B00680A3010BD95
:1053700080B5DFF8BC0B4078DFF8AC1B0968C97852
:1053800088421AD3DFF8A00B00688078002814D177
:10539000DFF8940B0068808800280ED1DFF8880BB6
:1053A0000068C078DFF8801B09688872DFF87C0B22
:1053B000006840688047002000E0022002BD10B570
:1053C0000400A4B2002C06D10120DFF85C1B0968A0
:1053D0000882002008E0DFF8540B006880688047EE
:1053E000DFF8440B00680C3010BD10B5DFF8380B47
:1053F0000068C178DFF8300B00684079DFF8B82B1F
:105400001268926990470400DFF81C0B0068807AEC
:1054100000282AD0E4B2002C0BD1DFF80C0B006876
:105420000079002805D1DFF8000B0068807800289B
:1054300001D002201AE0E4B2002C16D1DFF8EC0A09
:105440000068C0688047DFF8E00A00684079DFF84C
:10545000D81A0968C872DFF8D00A0068C078DFF887
:10546000C81A09680873002000E0022010BD10B5BA
:105470000400A4B2002C06D10220DFF8AC1A09689F
:10548000088200207FE00020DFF8301B0880DFF872
:10549000980A006800787F2108422AD1DFF8880A3C
:1054A0000068407A810608D5DFF8101B097851F0B2
:1054B0000201DFF8082B117007E0DFF8001B097804
:1054C00011F0FD01DFF8F42A1170410608D5DFF86C
:1054D000EC1A097851F00101DFF8E02A11704BE075
:1054E000DFF8D81A097811F0FE01DFF8D02A117020
:1054F00042E0DFF8340A0068007810F07F000128ED
:1055000002D1DFF8B80A3EE0DFF81C0A0068007834
:1055100010F07F0002282DD1DFF80C1A09684979B4
:1055200011F00F0210000A0611D5DFF8942AC0B25C
:1055300052F8202012F03002102A1DD1DFF87C2A08
:10554000127852F00102DFF8743A1A7014E0DFF8B2
:10555000702AC0B252F8202012F44052B2F5805F97
:105560000AD1DFF8582A127852F00102DFF84C3ADB
:105570001A7001E0002006E0DFF8B0090068006959
:105580008047DFF8380A10BD2DE9F843DFF89809A5
:105590000068007810F07F04002C0BD1DFF8880938
:1055A0000068407A10F0DF00DFF87C190968487263
:1055B0000020A0E0022C40F09D80DFF86C0900681C
:1055C0004088002805D1DFF86009006800790028CC
:1055D00001D002208FE0DFF858090600DFF8480903
:1055E0000068407980467FF0800010EA080081461C
:1055F0004F46DFF8340900684079000607D5DFF828
:10560000C00950F8270010F03000050006E0DFF870
:10561000B00950F8270010F440500500307881455B
:1056200007D2002D05D0DFF800090068807A002835
:1056300001D102205FE05FEA086011D5DFF8800940
:1056400050F8270010F0300010284CD13800C0B2BC
:1056500000F082FD30213800C0B200F0DDFC42E0F5
:10566000DFF85C0950F8270010F44050B0F5805F77
:1056700039D1002F1ED1DFF84C0990F82C1089B2D7
:105680003800C0B200F0D7FDDFF8341951F8271008
:105690004BF68F721140080090F4805090F4005047
:1056A00040F4004050F0800080B2DFF8141941F857
:1056B000270018E03800C0B200F035FDDFF800190F
:1056C00051F827104BF68F721140080090F480506B
:1056D00090F4005040F4004050F0800080B2DFF8B9
:1056E000E01841F82700DFF8440800684069804767
:1056F000002000E00220BDE8F283F8B5DFF82808BA
:105700000068407904007FF08000204006003500EA
:10571000DFF8140800684079000607D5DFF8A00814
:1057200050F8250010F03000070006E0DFF8900880
:1057300050F8250010F440500700DFF8F407007817
:1057400085420DD2DFF8E00700684088002807D1C5
:10575000002F05D0DFF8D0070068807A002801D13B
:1057600002202EE0200613D5DFF8541851F825103A
:1057700048F6BF721140080090F0100040F400405D
:1057800050F0800080B2DFF8381841F8250012E0B0
:10579000DFF82C1851F825104BF68F7211400800D5
:1057A00090F4805040F4004050F0800080B2DFF868
:1057B000101841F82500DFF87407006880698047F9
:1057C0000020F2BD80B5DFF860070068407A50F035
:1057D0002000DFF8541709684872DFF850070068A6
:1057E000C0698047002002BD10B40200DFF838070E
:1057F0000068408A030092B2002A07D18888C01A44
:10580000DFF8244724682082002001E0086818445B
:1058100010BC7047F8B5DFF81007006810F11004ED
:1058200020880500A06800281BD0002D19D0A08872
:105830000700BD4200D22F00380080B2A16888471F
:1058400006002088C01B20806088381860800020F7
:1058500000F0D1FC3A0092B2010089B2300000F0B1
:105860005BFD2088002804D04FF44050DFF8581723
:1058700008802088A188884205D30320DFF8A81675
:105880000968087220E02088002805D00520DFF88C
:1058900098160968087217E02088002814D106209D
:1058A000DFF88416096808720020DFF820170968FD
:1058B00089B2891CDFF81827126812EB41010860D1
:1058C0003020DFF810170880F1BD2DE9F041DFF836
:1058D0005806006810F110042588DFF84C060068AF
:1058E000067A002D24D1042E22D1DFF8EC060078B0
:1058F000002816D00020DFF8D416096889B2891C68
:10590000DFF8CC26126812EB410108603020DFF886
:10591000C4160880042006000020DFF8BC160870BA
:1059200005E0072006001020DFF8A81608802EE00A
:10593000A0888046A84501D3042600E002264545FC
:1059400000D2A846404680B2A168884707000020E0
:1059500000F042FC424692B2010089B2380000F0E9
:10596000BBFC414689B2002000F055FC2088B0EB1A
:1059700008002080608818EB000060803020DFF88D
:10598000541608804FF44050DFF83C160880DFF8CA
:10599000980500680672BDE8F08170B50224DFF852
:1059A000880500684578DFF88005006800787F2169
:1059B000084255D1092D03D1FFF7DAFC040073E04A
:1059C000052D1DD1DFF860050068C078802811DA48
:1059D000DFF854050068807800280BD1DFF848050F
:1059E00000688088002805D1DFF83C050068807ACF
:1059F000002802D0082006007FE00020040053E0C9
:105A0000032D12D1DFF820050068C078012809D1E4
:105A1000DFF8140500688088002803D1FFF7D2FE64
:105A2000040041E0022004003EE0012D3CD1DFF8FB
:105A3000F8040068C07801280FD1DFF8EC04006892
:105A40008088002809D1DFF8E0040068407A8006E9
:105A500003D5FFF799FD040026E00220040023E0AF
:105A6000DFF8C4040068007810F07F00012805D139
:105A70000B2D19D1FFF7B9FC040015E0DFF8A804DD
:105A80000068007810F07F0002280BD1012D03D1AF
:105A9000FFF77AFD040007E0032D05D1FFF72DFE87
:105AA000040001E002200400E4B2002C0DD0280024
:105AB000C0B2DFF804150968496988470400E4B2F8
:105AC000032C02D10920060017E0E4B2002C02D01A
:105AD0000820060011E0062006000020DFF8EC1484
